{
  "contractName": "MyContract",
  "abi": [
    {
      "inputs": [
        {
          "internalType": "uint256",
          "name": "_application_no",
          "type": "uint256"
        },
        {
          "internalType": "string",
          "name": "_transaction_id",
          "type": "string"
        },
        {
          "internalType": "string",
          "name": "_order_id",
          "type": "string"
        }
      ],
      "name": "createTransaction",
      "outputs": [],
      "stateMutability": "nonpayable",
      "type": "function"
    },
    {
      "inputs": [
        {
          "internalType": "uint256",
          "name": "_id",
          "type": "uint256"
        }
      ],
      "name": "getTransaction",
      "outputs": [
        {
          "components": [
            {
              "internalType": "uint256",
              "name": "application_no",
              "type": "uint256"
            },
            {
              "internalType": "string",
              "name": "transaction_id",
              "type": "string"
            },
            {
              "internalType": "string",
              "name": "order_id",
              "type": "string"
            }
          ],
          "internalType": "struct MyContract.Transaction",
          "name": "",
          "type": "tuple"
        }
      ],
      "stateMutability": "view",
      "type": "function",
      "constant": true
    }
  ],
  "bytecode": "0x6080604052600160045534801561001557600080fd5b506107bb806100256000396000f3fe608060405234801561001057600080fd5b50600436106100365760003560e01c806333ea3dc81461003b578063f87bee031461006b575b600080fd5b61005560048036038101906100509190610442565b610087565b604051610062919061059e565b60405180910390f35b6100856004803603810190610080919061046f565b6101e2565b005b61008f6102a3565b60036000838152602001908152602001600020604051806060016040529081600082015481526020016001820180546100c79061067e565b80601f01602080910402602001604051908101604052809291908181526020018280546100f39061067e565b80156101405780601f1061011557610100808354040283529160200191610140565b820191906000526020600020905b81548152906001019060200180831161012357829003601f168201915b505050505081526020016002820180546101599061067e565b80601f01602080910402602001604051908101604052809291908181526020018280546101859061067e565b80156101d25780601f106101a7576101008083540402835291602001916101d2565b820191906000526020600020905b8154815290600101906020018083116101b557829003601f168201915b5050505050815250509050919050565b604051806060016040528085815260200184848080601f016020809104026020016040519081016040528093929190818152602001838380828437600081840152601f19601f8201169050808301925050505050505081526020018281525060036000600454815260200190815260200160002060008201518160000155602082015181600101908051906020019061027c9291906102c4565b5060408201518160020190805190602001906102999291906102c4565b5090505050505050565b60405180606001604052806000815260200160608152602001606081525090565b8280546102d09061067e565b90600052602060002090601f0160209004810192826102f25760008555610339565b82601f1061030b57805160ff1916838001178555610339565b82800160010185558215610339579182015b8281111561033857825182559160200191906001019061031d565b5b509050610346919061034a565b5090565b5b8082111561036357600081600090555060010161034b565b5090565b600061037a610375846105e5565b6105c0565b9050828152602081018484840111156103965761039561074e565b5b6103a184828561063c565b509392505050565b60008083601f8401126103bf576103be610744565b5b8235905067ffffffffffffffff8111156103dc576103db61073f565b5b6020830191508360018202830111156103f8576103f7610749565b5b9250929050565b600082601f83011261041457610413610744565b5b8135610424848260208601610367565b91505092915050565b60008135905061043c8161076e565b92915050565b60006020828403121561045857610457610758565b5b60006104668482850161042d565b91505092915050565b6000806000806060858703121561048957610488610758565b5b60006104978782880161042d565b945050602085013567ffffffffffffffff8111156104b8576104b7610753565b5b6104c4878288016103a9565b9350935050604085013567ffffffffffffffff8111156104e7576104e6610753565b5b6104f3878288016103ff565b91505092959194509250565b600061050a82610616565b6105148185610621565b935061052481856020860161064b565b61052d8161075d565b840191505092915050565b6000606083016000830151610550600086018261058f565b506020830151848203602086015261056882826104ff565b9150506040830151848203604086015261058282826104ff565b9150508091505092915050565b61059881610632565b82525050565b600060208201905081810360008301526105b88184610538565b905092915050565b60006105ca6105db565b90506105d682826106b0565b919050565b6000604051905090565b600067ffffffffffffffff821115610600576105ff610710565b5b6106098261075d565b9050602081019050919050565b600081519050919050565b600082825260208201905092915050565b6000819050919050565b82818337600083830152505050565b60005b8381101561066957808201518184015260208101905061064e565b83811115610678576000848401525b50505050565b6000600282049050600182168061069657607f821691505b602082108114156106aa576106a96106e1565b5b50919050565b6106b98261075d565b810181811067ffffffffffffffff821117156106d8576106d7610710565b5b80604052505050565b7f4e487b7100000000000000000000000000000000000000000000000000000000600052602260045260246000fd5b7f4e487b7100000000000000000000000000000000000000000000000000000000600052604160045260246000fd5b600080fd5b600080fd5b600080fd5b600080fd5b600080fd5b600080fd5b6000601f19601f8301169050919050565b61077781610632565b811461078257600080fd5b5056fea26469706673582212200de00ddf12fdbfc66de7f681b694ecb42cf2d0b6b4ea2ea70760de3cb42c96de64736f6c63430008060033",
  "immutableReferences": {},
  "source": "pragma solidity >=0.5.0 < 0.9.0;\r\n\r\ncontract MyContract{\r\n    struct Transaction{\r\n      uint application_no;\r\n      string  transaction_id;\r\n      string  order_id;\r\n    }\r\n    Transaction transaction;\r\n    mapping(uint=>Transaction) transactions;\r\n    uint id=1;\r\n    function createTransaction(uint _application_no, string calldata _transaction_id, string memory _order_id) public {\r\n        transactions[id]=(Transaction(_application_no, _transaction_id,_order_id));\r\n    }\r\n    function getTransaction(uint _id) public view returns(Transaction memory){\r\n        // Transaction memory transaction = transactions[_index];\r\n        return transactions[_id];\r\n    }\r\n}",
  "sourcePath": "C:\\Users\\Sachin\\Desktop\\payment\\contracts\\MyContract.sol",
  "compiler": {
    "name": "solc",
    "version": "0.8.6+commit.11564f7e.Emscripten.clang"
  },
  "schemaVersion": "3.4.16",
  "updatedAt": "2023-11-10T23:46:07.424Z",
  "networkType": "ethereum",
  "devdoc": {
    "kind": "dev",
    "methods": {},
    "version": 1
  },
  "userdoc": {
    "kind": "user",
    "methods": {},
    "version": 1
  }
}